:020000040800F2
:1000000000500020A1130008351300083713000822
:10001000391300083B1300083D13000800000000DE
:100020000000000000000000000000003F13000876
:1000300041130008000000004313000845130008A6
:10004000E9130008E9130008E9130008E9130008A0
:10005000E9130008E9130008E9130008E913000890
:10006000E9130008E9130008E9130008E913000880
:10007000E9130008E9130008E9130008E913000870
:10008000E9130008E9130008E9130008E913000860
:10009000E9130008E9130008E9130008E913000850
:1000A000E9130008E9130008E9130008E913000840
:1000B000E9130008E9130008E9130008E913000830
:1000C000E9130008E9130008E9130008E913000820
:1000D000E9130008E9130008E9130008E913000810
:1000E000E9130008E9130008E91300080000000004
:1000F0000000000000000000000000000000000000
:0C01000000000000000000005FF808F1A3
:10010C0010B5054C237833B9044B13B10448AFF345
:10011C0000800123237010BD0C00002000000000A3
:10012C003414000808B5034B1BB103490348AFF363
:10013C00008008BD000000001000002034140008EE
:10014C0038B50E4B054618784FF47A73B3FBF0F3C1
:10015C000B4A1068B0FBF3F000F0B8F9044658B93C
:10016C000F2D09D8024629464FF0FF3000F07AF9DE
:10017C00044B20461D6038BD012038BD0000002016
:10018C000800002004000020074A08B5136803206B
:10019C0043F01003136000F053F90020FFF7D0FF79
:1001AC0000F0E8FF002008BD00200240034A044B89
:1001BC0011681B780B441360704700BF28000020A7
:1001CC0000000020014B1868704700BF2800002079
:1001DC0038B50446FFF7F6FF0546631C1EBF044BFB
:1001EC001B78E418FFF7EEFF401B8442FAD838BDA9
:1001FC0000000020002373B5019390F82430012BEC
:10020C0074D001234D6880F82430062D02684FEA23
:10021C0085030C6825D82B441F25566B053B9D4048
:10022C0026EA050504FA03F32B435363092C4FEA22
:10023C0044038D682FD907262344D1681E3B9E406A
:10024C0021EA060105FA03F30B43D360A4F1100372
:10025C00012B2BD90023002280F82420184602B051
:10026C0070BD0C2D0BD82B441F25166B233B9D40CA
:10027C0026EA050504FA03F32B431363D6E72B4454
:10028C001F25D66A413B9D4026EA050504FA03F377
:10029C002B43D362CAE70726116923449E4021EA07
:1002AC00060105FA03F30B431361CFE7104B9A4297
:1002BC0016D193681B02CDD49368102C43F4000321
:1002CC009360C7D10B4B0C4A1B68B3FBF2F20A23A9
:1002DC0053430193019B002BBCD0019B013BF8E7DE
:1002EC00836A43F0200383620123B4E70223B5E75A
:1002FC00002401400800002040420F0038B503687C
:10030C0004469A68D20701D4002038BD9A6822F0BE
:10031C0001029A60FFF756FF054623689B68DB07CE
:10032C00F2D5FFF74FFF401B0228F6D9A36A012034
:10033C0043F01003A362E36A43F00103E36238BDA8
:10034C0070B50446002871D0836A23B9C36280F863
:10035C00243000F05FFF2046FFF7D0FFA36A13F0B4
:10036C00100FA36A64D1002862D1E16923F4885389
:10037C00626823F0020343F002030A43A168A362FC
:10038C00E368B1F5807F42EA430238D0012914BFFB
:10039C0006464FF480766569012D07D1002B30D1CC
:1003AC00A369013B46EA433545F400662368B1F581
:1003BC00807F5D6825F4694545EA06055D609E68A9
:1003CC001D4D05EA060545EA02059D6001D001298F
:1003DC0020D1216901390905DD6A25F4700529430D
:1003EC00D9629968154B0B409A4215D10023E362F0
:1003FC00A36A23F0030343F00103A36270BD0E460E
:10040C00C9E7A36A43F02003A362E36A43F0010344
:10041C00E362CBE70021DFE7A36A23F0120343F08A
:10042C001003A362E36A43F00103E362012070BD91
:10043C0043F01003A362F9E7FDF7E1FFFE0E1FFF87
:10044C00074A0002D36800F4E06023F4E0631B0465
:10045C001B0C43F0BF6343F400330343D36070477A
:10046C0000ED00E0174B30B5DC68C4F30224C4F196
:10047C000703251D042B28BF0423062D4FF001056F
:10048C0098BF002405FA03F303F1FF3388BF033C44
:10049C001940A14005FA04F4013C2240002842EA2C
:1004AC0001024FEA0212AFBF00F16040064B00F0B0
:1004BC000F00D2B2A5BFD2B200F561401A5480F839
:1004CC00002330BD00ED00E014ED00E00138B0F188
:1004DC00807F0AD2F021064B064A586082F823101E
:1004EC000020072298601A6070470120704700BFF7
:1004FC0010E000E000ED00E0044B04281A680CBF8B
:10050C0042F0040222F004021A60704710E000E08E
:10051C00704708B5FFF7FCFF08BD00002DE9F74F49
:10052C0000221646654BDFF8A4E1DFF8A4C14FF0BA
:10053C0001080C6808FA06F808EA0404A0457FD103
:10054C004D68122D00F0AF8000F28880022D00F073
:10055C00A7807CD8002D00F08E80012D00F09E80AD
:10056C004FF00F09FF2C93BF824606F18045083DE2
:10057C00D0F800B092BFB500D0F804B0AD0009FAC5
:10058C0005F82BEA080802FA05F588BF00F1040A01
:10059C0048EA0505CAF80050D1F804A01AF0805FAB
:1005AC004ED0474D464FAD6926F0030845F0010586
:1005BC00BD61BD6908F1804805F00105019508F59C
:1005CC00803806F0030B019D4FEA8B0BD8F80850CE
:1005DC0009FA0BF925EA09093A4DA84268D005F544
:1005EC008065A84266D005F58065A84264D005F503
:1005FC008065A8420CBF0325042505FA0BF545EAD6
:10060C000905C8F808501D681AF4803F14BF25432B
:10061C00A5431D605D681AF4003F14BF2543A54334
:10062C005D609D681AF4801F14BF2543A5439D602F
:10063C00DD681AF4001F14BF2C4325EA0404DC60A7
:10064C000136102E7FF473AF03B0BDE8F08F032D8D
:10065C0022D0112D84D1CA68043281E71A4FBD42D1
:10066C0009D012D8DFF86C904D4504D009F58039CB
:10067C004D457FF475AF8A68C2B1012A0CBFC0F832
:10068C001080C0F8148008226AE77545F3D06545E0
:10069C00F1D0DFF84490EBE7002261E7CA685FE72E
:1006AC00CA6808325CE7CA680C3259E7042257E77B
:1006BC000025A2E70125A0E702259EE700040140E2
:1006CC000010024000080140000021100000311011
:1006DC000000321000001110000022100AB101615C
:1006EC0070470904FBE7C3685940C16070470000BC
:1006FC0038B5044608B9012038BD90F83D3003F0F8
:10070C00FF021BB980F83C2000F0A4FD24232268D2
:10071C0084F83D30136823F00103136000F0DAFA1B
:10072C0063682F4A934230D82E4A9042E3D92E4A1E
:10073C002168B0FBF2F24A6001320A62284A0138A1
:10074C00934232D85B00B0FBF3F0431CC3F30B03B2
:10075C00042B38BF0423CB61226AE36900201343C6
:10076C000B60E268236913438B60A26963691343CE
:10077C00CB600B6843F001030B602023206484F8EA
:10078C003D30206384F83E0038BD184A9042B2D9FF
:10079C00154D4FF49672B0FBF5F521686A434D6028
:1007AC004FF47A75B2FBF5F2C6E7A26852B903EBC7
:1007BC004303B0FBF3F0431CC3F30B036BB143F4E3
:1007CC000043C8E719225343B0FBF3F0431CC3F3B7
:1007DC000B0313B143F44043BDE70123BBE700BF58
:1007EC00A08601007F841E0040420F00FF083D00E0
:1007FC0003682DE9F341DB07054610D42B689F07EE
:10080C005ED42B68190700F195802B685A0700F10C
:10081C00BF80EA69002A40F02D81002014E0904C42
:10082C00636803F00C03042B07D0636803F00C031C
:10083C00082B0CD16368DE0309D523689C03DDD536
:10084C006B68002BDAD1012002B0BDE8F0816B6837
:10085C00B3F5803F10D1236843F480332360FFF756
:10086C00B1FC064623689803C8D4FFF7ABFC801B89
:10087C006428F7D90320E7E79BB9236823F4803376
:10088C002360236823F480232360FFF79BFC064638
:10089C0023689903B2D5FFF795FC801B6428F7D920
:1008AC00E8E7B3F5A02F236803D143F4802323603A
:1008BC00D1E723F480332360236823F48023CDE72E
:1008CC00674C636813F00C0F07D0636803F00C03DC
:1008DC00082B10D16368DA030DD423689B0702D56B
:1008EC002B69012BAFD123686A6923F0F80343EA23
:1008FC00C203236085E72A695A4B6AB101221A6048
:10090C00FFF760FC064623689F07ECD4FFF75AFC00
:10091C00801B0228F7D9ADE71A60FFF753FC064697
:10092C00236898077FF56DAFFFF74CFC801B0228FE
:10093C00F6D99FE7AA694A4C4B4BDAB101221A60EF
:10094C00FFF740FC0646636A9B070DD54FF4FA523D
:10095C00464B1B68B3FBF2F3019300BF019B5A1E7D
:10096C000192002BF9D150E7FFF72CFC801B0228D9
:10097C00E9D97FE71A60FFF725FC0646636A9F07F3
:10098C007FF543AFFFF71EFC801B0228F6D971E7F9
:10099C00334CE369D80024D40127E36943F0805336
:1009AC00E361E36903F080530093009B304E33689E
:1009BC00D90518D5EB68012B26D1236A43F0010326
:1009CC002362FFF7FFFB41F288368046236A9B07C0
:1009DC003FD5002F3FF41DAFE36923F08053E36153
:1009EC0017E70027E2E7336843F480733360FFF7BF
:1009FC00E9FB80463368DA05DCD4FFF7E3FBA0EBB8
:100A0C0008006428F6D935E7ABB9236A41F2883877
:100A1C0023F001032362236A23F004032362FFF70C
:100A2C00D1FB0646236A9807D3D5FFF7CBFB801B77
:100A3C004045F7D91EE7052B236A03D143F0040385
:100A4C002362BAE723F001032362236A23F0040331
:100A5C00B6E7FFF7B7FBA0EB0800B042B6D909E741
:100A6C000010024000004242800442420800002074
:100A7C0000700040224C636803F00C03082B3FF419
:100A8C00E2AE00231F4E022A33602BD1FFF79AFBF4
:100A9C000746236899011FD42B6AB3F5803F05D113
:100AAC006268A96822F400320A436260696A62686B
:100ABC000B4322F474121343636001233360FFF77A
:100ACC0081FB054623689A013FF5A7AEFFF77AFB39
:100ADC00401B0228F6D9CDE6FFF774FBC01B022899
:100AEC00D7D9C7E6FFF76EFB054623689B017FF558
:100AFC0094AEFFF767FB401B0228F6D9BAE600BF9D
:100B0C00001002406000424230B5194B87B002AC75
:100B1C0003F11005224618685968083303C2AB422A
:100B2C001446F7D101238DF80430022311498DF8B6
:100B3C0005304B6803F00C02082A17D1C3F383422B
:100B4C0006A80244DB0312F8102C0CD54B680A489B
:100B5C00C3F34043504306AA134413F8143CB0FBB0
:100B6C00F3F007B030BD05485043FAE70248F8E708
:100B7C004C1400080010024000127A0000093D00DD
:100B8C004D4A2DE9F0411368054603F007038B42EB
:100B9C000E4628D32A68910732D4D20738D4464A55
:100BAC00136803F007039E4273D32A68434C12F078
:100BBC00040F79D1130706D563682A6923F46053AF
:100BCC0043EAC2036360FFF79FFF63683C4AC3F3C9
:100BDC000313D35CD8403B4B18600020FFF7B0FAEE
:100BEC000020BDE8F081136823F007030B4313606A
:100BFC00136803F007039942CCD00120BDE8F081C3
:100C0C002E49A8684B6823F0F00303434B60C4E7FC
:100C1C006A682A4C012A23681CD113F4003FECD0DB
:100C2C00636841F2883823F0030313436360FFF7D2
:100C3C00C9FA6B680746012B14D1636803F00C03E7
:100C4C00042BACD0FFF7BEFAC01B4045F5D90320EE
:100C5C00BDE8F081022A02D113F0007FDFE713F028
:100C6C00020FDCE7022B0FD1636803F00C03082B97
:100C7C0095D0FFF7A7FAC01B4045F5D9E7E7FFF77A
:100C8C00A1FAC01B4045E2D8636813F00C0FF6D1F3
:100C9C0085E7136823F0070333431360136803F0ED
:100CAC0007039E42A9D180E76368E96823F4E063F7
:100CBC000B4363607EE700BF00200240001002403F
:100CCC005C14000808000020014B1868704700BF36
:100CDC0008000020044B054A5B68C3F30223D35C75
:100CEC00034A1068D8407047001002406C1400088A
:100CFC0008000020044B054A5B68C3F3C223D35C95
:100D0C00034A1068D8407047001002406C14000869
:100D1C000800002003682DE9F341D907054620D5CA
:100D2C00354CE369DA0032D40127E36943F0805390
:100D3C00E361E36903F080530193019B2F4E336809
:100D4C00DB0526D5236A13F4407336D1236A6A680F
:100D5C0023F44073134323621FB1E36923F08053E0
:100D6C00E3612868830706D5234AA968536823F4EE
:100D7C0040430B43536010F010001BD01E4AE9682F
:100D8C005368002023F480030B43536012E00027C8
:100D9C00D4E7336843F480733360FFF713FA80466B
:100DAC003368D805CED4FFF70DFAA0EB0800642801
:100DBC00F6D9032002B0BDE8F0816A6802F44072F3
:100DCC009342C3D001200E4A236A1060002023F402
:100DDC00407110602162D907B8D5FFF7F3F941F2E1
:100DEC0088380646236A9A07B0D4FFF7EBF9801BC4
:100DFC004045F7D9DDE700BF00100240007000400D
:100E0C00400442422DE9F0470568C2682B6901692C
:100E1C0023F4405313432B618368EA680B43416905
:100E2C0022F4B05222F00C020B431343EB606B69BB
:100E3C00826923F4407313436B61404B81469D429E
:100E4C004FF0190446D1FFF755FF04FB00F3D9F816
:100E5C0004604FF06408B600B3FBF6F3B3FBF8F391
:100E6C001E01FFF747FF6043D9F804309B00B0FB2D
:100E7C00F3F7FFF73FFF6043D9F804309B00B0FB5A
:100E8C00F3F3B3FBF8F308FB13731B013233B3FB1F
:100E9C00F8F303F0F007FFF72DFF6043D9F80420B7
:100EAC009200B0FBF2FAFFF725FF6043D9F804304B
:100EBC009B00B0FBF3F3B3FBF8F308FB13A31B018C
:100ECC003233B3FBF8F303F00F033B433344AB6013
:100EDC00BDE8F087FFF7FEFE04FB00F3D9F80460D1
:100EEC004FF06408B600B3FBF6F3B3FBF8F31E0146
:100EFC00FFF7F0FE6043D9F804309B00B0FBF3F72A
:100F0C00FFF7E8FE6043D9F804309B00B0FBF3F325
:100F1C00B3FBF8F308FB13731B013233B3FBF8F389
:100F2C0003F0F007FFF7D6FE6043D9F804209200D7
:100F3C00B0FBF2FAFFF7CEFEB7E700BF0038014076
:100F4C0010B5044640B390F8393003F0FF021BB9DA
:100F5C0080F8382000F0BCF92423226884F839305A
:100F6C00D368204623F40053D360FFF74BFF23686C
:100F7C0000201A6922F490421A615A6922F02A025E
:100F8C005A61DA6842F40052DA602023E06384F894
:100F9C00393084F83A3010BD012010BD4FF4803345
:100FAC0010B594B001220B930021022412934FF43C
:100FBC00E0130AA80A920C910E9211941393FFF766
:100FCC0017FC00B1FEE70F2305934FF480630790E5
:100FDC000990214605A806940893FFF7D1FD00B1AE
:100FEC00FEE74FF4004301A801940393FFF792FE30
:100FFC00044600B1FEE7FFF767FE4FF47A73B0FBCF
:10100C00F3F0FFF763FA0420FFF776FA2246214645
:10101C004FF0FF30FFF726FA14B010BD00B589B0C1
:10102C00FFF7B2F8FFF7BAFF474B4FF400519A693C
:10103C00464842F010029A619A69002402F01002AC
:10104C000092009A9A69012542F020029A619A69ED
:10105C0002F020020192019A9A6942F004029A610C
:10106C009A6902F004020292029A9A6942F008020A
:10107C009A619B69002203F008030393039BFFF71B
:10108C002DFB4FF4005304930223304804A907931B
:10109C0005950694FFF742FA4FF4E1332C482D4A9C
:1010AC00846080E80C000C23C4600461436184619B
:1010BC00C461FFF745FF00B1FEE7274C274BA0604A
:1010CC0023604FF46023E060606160602046E36160
:1010DC002561FFF735F900B1FEE7069004A920461B
:1010EC0004950595FFF786F800B1FEE74FF48044B0
:1010FC001B4B1C4A1C4D9860D86058619861D86194
:10110C001862184683E824001C61FFF7F1FA00B15D
:10111C00FEE7164B164A9860D86058619861D86102
:10112C001862184683E824001C61FFF7E1FA48B9FD
:10113C00064C20464FF40051FFF7D5FA0F20FFF76D
:10114C0047F8F6E7FEE700BF001002400010014030
:10115C000401002000380140D4000020002401408C
:10116C002C00002000540040A086010080000020CC
:10117C0000580040254B07B59A69032042F0010244
:10118C009A619A6902F001020092009ADA6942F0BF
:10119C008052DA61DB6903F080530193019BFFF706
:1011AC004FF900226FF00B001146FFF75BF900229C
:1011BC006FF00A001146FFF755F900226FF0090095
:1011CC001146FFF74FF900226FF004001146FFF7AC
:1011DC0049F900226FF003001146FFF743F9002292
:1011EC006FF001001146FFF73DF900224FF0FF3080
:1011FC001146FFF737F9064A536823F0E06343F0D2
:10120C000073536003B05DF804FB00BF0010024094
:10121C00000001407FB502680C4B9A4212D103F5D5
:10122C006C439A6902A942F400729A619B6908485E
:10123C0003F400730193019B022302930323039392
:10124C00FFF76CF907B05DF804FB00BF0024014008
:10125C00000801407FB50368194A934216D1C02398
:10126C00029312230393032302A916480593FFF755
:10127C0055F9154BDA6942F40012DA61DB6903F4B3
:10128C0000130093009B07B05DF804FB0F4A9342D8
:10129C00F9D14FF44063029312230393032302A961
:1012AC0008480593FFF73AF9074BDA6942F48002D4
:1012BC00DA61DB6903F480030193019BE3E700BF70
:1012CC0000540040000C0140001002400058004047
:1012DC007FB50268124B9A421FD103F558439A69A5
:1012EC0002A942F480429A619B690E4803F4804340
:1012FC000193019B4FF40073029302230393032386
:10130C000593FFF70BF94FF480630293002302A9B6
:10131C00044803930493FFF701F907B05DF804FB4D
:10132C0000380140000801407047FEE7FEE7FEE789
:10133C00FEE770477047704708B5FEF737FFBDE80A
:10134C000840FFF7E6B800000F4B1A6842F00102A4
:10135C001A6059680D4A0A405A601A6822F0847261
:10136C0022F480321A601A6822F480221A605A68B9
:10137C0022F4FE025A604FF41F029A604FF0006292
:10138C00034B9A60704700BF001002400000FFF84A
:10139C0000ED00E0002103E00B4B5B58435004319F
:1013AC000A480B4B42189A42F6D30A4A02E0002331
:1013BC0042F8043B084B9A42F9D3FFF7C5FF00F003
:1013CC000FF8FFF72BFE70477C140008000000207C
:1013DC000C0000200C00002044010020FEE700005F
:1013EC0070B500250C4E0D4CA41BA410A54209D1C0
:1013FC0000F01AF800250A4E0A4CA41BA410A542B2
:10140C0005D170BD56F8253098470135EEE756F8F2
:10141C00253098470135F2E774140008741400085D
:10142C007414000878140008F8B500BFF8BC08BCA8
:10143C009E467047F8B500BFF8BC08BC9E46704786
:10144C0002030405060708090A0B0C0D0E0F1010F9
:10145C000000000000000000010203040607080958
:08146C0000000000010203046E
:04147400310100083A
:041478000D0100085A
:0C147C00010000001000000000A24A0463
:04000005080013A13B
:00000001FF
